:100000000C94E4040C9401050C9401050C94010576
:100010000C94AB090C9401050C9401050C9401059A
:100020000C9401050C9401050C9401050C94330B00
:100030000C9401050C94CF0A0C940A0B0C94010546
:100040000C9401050C9401050C9401050C94010518
:100050000C940105C1C1C1C10000C2C2FEFE010075
:10006000C3C31F1F0100C4C4FCFC0100C5C5C5C536
:100070000101C6BDBFBE0101C7C7C0C00100C88223
:1000800084830101C9C9FDFD0100CA85878601017C
:10009000CB888A890101CC8BCC8B0101CD8CCD8C96
:1000A0000101CE11CE110101CFCF13130100D0D029
:1000B0008F8F0100D1D11B1B0100D2D29191010081
:1000C000D39294930101D49597960101D5179A99EB
:1000D0000101D69B9D9C0101D7D7D7D70000D8D866
:1000E0009E9E0101D9D99F9F0101DAA0A2A1010121
:1000F000DBA3A5A40101DCDCDCDC0000DDA6A8A7F5
:100100000101DEA9ABAA0101DFACAEAD0101E0E067
:10011000E0E00000E1AFB1B00101E2E2E2E20000A4
:10012000E3B2B4B30101E4B5B7B60101E5B8BAB9B9
:100130000101E6E6BCBC0100E7E7E7E70000E8E80C
:10014000E8E80000E9E9E9E90000EAEAEAEA000093
:10015000EBEBEBEB0000ECBDBFBE0101EDBDBFBEA4
:100160000101EEEEEEEE0000EFEFEFEF0000F0F039
:10017000F0F00000F1F1F1F10000F2F2F2F2000013
:10018000F3F3F3F30000F5F5F5F50000F6F6F6F6F7
:100190000000F7F7F7F70000F8F8F8F80000FBF9AF
:1001A000FBFA0101BBBBF4F40100811C1E1D01011F
:1001B00090181A1901019814161501018E8E121249
:1001C00001008D108D1001010000000000000000F2
:1001D000000000000000000000000000000000001F
:1001E000000000000000000000000000000000000F
:1001F00000000000000000000000000000000000FF
:1002000000000000000000000000000000000000EE
:1002100000000000000000000000000000000000DE
:1002200000000000000000000000000000000000CE
:1002300000000000000000000000000000000000BE
:1002400000000000000000002020282868B0602086
:100250002020282A2830202000808044322420209A
:10026000002424243820202020202020242A1100AB
:10027000202020242A11202030202020242A112070
:10028000202030203028281820242221242A110060
:10029000242221242A11202030242221242A112042
:1002A000008080403020202020202060A060283066
:1002B00020202060B060202000302860A060302026
:1002C0000004061D2524202000000000000000007E
:1002D00000004F00000000000007000700000000C1
:1002E00000147F147F14000000242A7F2A120000CB
:1002F00000231308646200000036495522400000C4
:100300000000050300000000001C22410000000066
:100310000041221C000000000014083E08140000E8
:100320000008083E0808000000002818000000002F
:10033000000808080808080000303000000000002D
:100340000020100804020000003E5149453E000014
:100350000000427F40000000004261514946000019
:10036000002141454B310000001814127F1000009D
:100370000000274545453900003C4A494930000006
:1003800000017109050300000036494949360000A3
:1003900000064949291E0000000036360000000012
:1003A0000000563600000000000814224100000042
:1003B000002424242424000000004122140800000A
:1003C000000201510906000000324979413E000057
:1003D000007E1111117E0000007F4949493600005E
:1003E000003E414141220000007F4141221C0000AB
:1003F000007F494949410000007F090909010000C7
:10040000003E4149493A0000007F0808087F00008B
:100410000000417F41000000002040413F010000FA
:10042000007F081422410000007F4040404000004F
:10043000007F020C027F0000007F0408107F000094
:10044000003E4141413E0000007F090909060000CD
:100450003E4151215E000000007F0919294600003D
:1004600000464949493100000001017F01010000B7
:10047000003F4040403F0000001F2040201F000080
:10048000003F4060403F0000006314081463000018
:10049000000708700807000000615149454300004B
:1004A000007F4141000000000015167C1615000079
:1004B0000041417F0000000000040201020400002E
:1004C00000404040404000000001020400000000E5
:1004D0000020545454780000007F44444438000005
:1004E000003844444400000000384444487F000081
:1004F000003854545418000000107E11010200000E
:10050000000C5252523E0000007F080404780000A4
:100510000000447D40000000002040403D000000FD
:10052000007F1028440000000000417F40000000D0
:10053000007C041804780000007C080404780000A3
:100540000038444444380000007C141414080000AF
:1005500000081414187C0000007C08040408000043
:10056000004854545420000000043F444020000040
:10057000003C4040207C0000001C2040201C00006B
:10058000001E2010201E000000221408142200006B
:1005900000064848483E0000004464544C440000B3
:1005A00000083641000000000000007F000000004D
:1005B00000413608000000000008082A1C0800005E
:1005C00000081C2A08080000003C4241423C000090
:1005D00000302860A060283020202020A020283073
:1005E00020202020B020202000302820A0203020F3
:1005F00020202022202228302020202230222020CB
:1006000000302822202230202020202221222830C1
:1006100020202022312220200030282221223020B8
:100620002020282828B020202020282828302020FA
:1006300000C0A82868B06020000080804432040018
:10064000002425243820202030242221242A1100AF
:10065000008080403420202020202038203820189E
:1006600020203820382038206080807820382018DA
:100670002020203822392218202038223922382000
:10068000608080782239221830202020242A11000E
:10069000203020302828382060808060302828389A
:1006A0002020302030282A1820302030282A3820D6
:1006B0006080806030282A3820203E30282838206A
:1006C00020203E30282A38202020202030282800D2
:1006D00020202030282820200040A0B028282020DA
:1006E0002020202030282A0020202030282A2020E6
:1006F0000040A0B0282A20202020202030282A30A6
:10070000202030282A3020200018202030282A30AD
:1007100020202020302A28322020302A2832202071
:10072000608080B2A87A202022252525252525193C
:100730002020201C2221202030282C2A203F20206D
:100740002020202020201F000000000000070507B7
:10075000003040403F2020202020202030484830DA
:100760002020304848302020804030484830202029
:100770002020202022201800202020201A202020A5
:10078000304044403020202020202030283A2C18AF
:10079000202030283A2C382000181414182020204B
:1007A0000021222428100F0000B0A878202020204B
:1007B000202020A020A02830202020A030A0202011
:1007C00000608080A0501020001E202020202020CB
:1007D0000020302828200000000402023A02020112
:1007E000000004063D050400000004B6AD7D0400D1
:1007F000000080C0BFA0800004668595A8A84800BE
:100800000000003F0000000000302820A020283019
:100810000000302A28320000003028222022283010
:10082000003028222122283000C0A8A828B020208B
:1008300000C0A8A8A830202000C0A8AA28302020E6
:10084000000024242438000000002425243800005F
:1008500000808040300000000000808040340000B4
:1008600060808078203820186080807822392218B3
:1008700060808060302828186080806030282A18C6
:10088000002214081422000020203E3028281800DE
:1008900020203E30282A1800000040A0B028280060
:1008A000000040A0B02A2800202020202020202066
:1008B0000018202030282A3000608080B2A87A00FA
:1008C0000030282C2A203F000040A9AAA8F00000F0
:1008D00000006080807E00000040AAA9AAF000000D
:1008E0000000C02030282830000060808880600030
:1008F0000000302828300000000000B0A878000078
:100900000426252528100F000422222629100F0076
:1009100000212224A8D0AFA00070AAA9AA3000000C
:100920000070AAA8AA3000000030404050280800FB
:100930000030C040D028080000000279020000000A
:10094000000002780200000000000000000505051C
:1009500000000004030B0606A0A0A0000000000099
:1009600000000101010100000021222428102F2095
:10097000000000000004030300008080808000006D
:1009800000001010541010000000020402040200C5
:100990002024262525202830202426253520202007
:1009A000086C8A8AA050102004B6AD7D2420202037
:1009B00000191415182020200402021A22222120D6
:1009C000004060504850404011241FBECFE5D8E0A1
:1009D000DEBFCDBF10E0A0E6B0E0E0EFF6E102C080
:1009E00005900D92AC36B107D9F720E0ACE6B0E047
:1009F00001C01D92AE3BB207E1F70E9443090C947F
:100A0000760B0C94000082B3806482BB85E88A95E3
:100A1000F1F7000082B38F7B82BB85E88A95F1F7FE
:100A2000000008952BB32B7F2BBB2BB3277F2BBB51
:100A30008034910538F498B39E7F98BB98B3926048
:100A400098BB07C098B3916098BB98B39D7F98BB43
:100A500080548F77806485BB0E94030508959BB303
:100A60009B7F9BBB9BB3977F9BBB8770886B85BB32
:100A70000E9403050895CF93DF93EB010E941205B6
:100A8000CE010E942F05DF91CF9108959BB3946012
:100A90009BBB9BB3977F9BBB85BB82E08A95F1F79D
:100AA00000C00E9403050895DC0120E050E015C05D
:100AB000FD01E50FF11D90819695908360FF02C0C6
:100AC000906890832F5F421302C0669520E03F5FDD
:100AD00001C030E0383060F35F5F5417D0F3089501
:100AE0002F923F924F925F926F927F928F929F923E
:100AF000AF92BF92CF92DF92EF92FF920F931F932C
:100B0000CF93DF9300D000D0CDB7DEB78C015B016F
:100B10003A01422E2DB73EB73C832B83842C912C77
:100B20007401C401880F991F880F991F880F991F9E
:100B3000281B390B0FB6F8943EBF0FBE2DBF8DB7E3
:100B40009EB701966C016983BA82CB010E9412059F
:100B5000C3010E942F05512C1BC0252D30E0F80148
:100B6000EE0FFF1FEE0FFF1FEE0FFF1FE20FF31F31
:100B7000E853FE4F6491E29EC001E39E900DF29E09
:100B8000900D1124442D8C0D9D1D0E9454055394ED
:100B900097E0951510F7212C39C0032D10E0809EA9
:100BA000C001819E900D909E900D11249501250D00
:100BB000311D820F931F8034910529F4B30180E425
:100BC00090E00E943B05E09EC001E19E900DF09EEA
:100BD000900D1124F601E20DF11DE80FF91F80813F
:100BE0000E944605539401C0512C5414B0F2339422
:100BF00001C0312C27E02315B8F73FEF631A730AC1
:100C0000B30189819A810E943B052394241488F3BF
:100C10008B819C810FB6F8949EBF0FBE8DBF0F9045
:100C20000F900F900F90DF91CF911F910F91FF9038
:100C3000EF90DF90CF90BF90AF909F908F907F907C
:100C40006F905F904F903F902F900895EF92FF929A
:100C50000F931F93CF93DF93C82FD62FF72E142F08
:100C6000E52E213009F091C08E3879F028F48138D2
:100C700081F08D3861F00EC0803919F0883919F093
:100C800009C0CBEF07C0CCEF05C0CDEF03C0CEEF5E
:100C900001C0CAEFC13C08F445C08091600090914A
:100CA0006100813C91050CF43DC0815C9109FC011F
:100CB000EE0FFF1FE80FF91FEE0FFF1FE75AFF4F60
:100CC000E491EE2379F12C2F30E0215C3109F90118
:100CD000EE0FFF1FE20FF31FEE0FFF1FE85AFF4F4B
:100CE000E491EE23F9F0E0917300F0E031969C017D
:100CF000220F331F820F931F880F991F8E0F9F1F84
:100D0000FC01EC5AFF4F84914091710050E06091DA
:100D1000720070E0202F90E00E94700582E08093C6
:100D2000730002C010927300C13CD8F08C2F90E089
:100D3000815C910920917300FC01EE0FFF1FE80F09
:100D4000F91FEE0FFF1FE20FF11DEC5AFF4F8491C8
:100D5000202F412F5E2D6D2F7F2D90E00E9470057A
:100D600009C0202F412F5E2D6D2F7F2D8C2F90E0FD
:100D70000E9470058C2F90E090936100809360003A
:100D8000D09372001093710004C0202F90E00E9455
:100D90007005DF91CF911F910F91FF90EF90089513
:100DA0002F923F924F925F926F927F928F929F927B
:100DB000AF92BF92CF92DF92EF92FF920F931F9369
:100DC000CF93DF936C01EB015A01322EF02E10E02D
:100DD0002CC0F601E80FF91F0F2D20E0A501BE0180
:100DE00080810E9426068E2D0E2C000C990B0896F1
:100DF0002F2D30E0829FA001839F500D929F500DB8
:100E00001124C40FD51F80E190E0821B930B880F43
:100E1000991F880F991F880F991F8C179D0724F41D
:100E2000A20EB31EC0E0D0E01F5F812F90E0F6015C
:100E300001900020E9F73197EC19FD098E179F0703
:100E400008F099C0332029F2212C96C02601420EC9
:100E5000531EF2018081813E39F4F9013196EC0D87
:100E6000FD1D9081973CE9F0813E39F4F9013196FE
:100E7000EC0DFD1D9081933CC9F0813E39F4F901E0
:100E80003196EC0DFD1D9081923CA9F0813EE1F47C
:100E90002F5F3F4FF601E20FF31F9081953CA1F4C5
:100EA0000FC00F2EF9EF2F2EF02D0EC00F2EF7EEE4
:100EB0002F2EF02D09C00F2EF8EE2F2EF02D04C08E
:100EC0000F2EF9EE2F2EF02D2220A1F08F2D90E085
:100ED000880F991F880F991F880F991FC81BD90B5E
:100EE0000F2D21E0A501BE01822D0E9426061E5F66
:100EF000212C27C06F2C712C9301220F331F220F3E
:100F0000331F220F331F4E01821A930A0F2D232DF8
:100F1000A501B4010E942606F2018081803279F495
:100F20008E2D0E2C000C990B0896689E9001699EE0
:100F3000300D789E300D11244E01821A930A1F5FE6
:100F4000E4012F2D30E0C901880F991F880F991FE8
:100F5000880F991F0196C817D90774F4C0E1D0E033
:100F6000C21BD30BCC0FDD1FCC0FDD1FCC0FDD1F41
:100F7000A20EB31E01C0212C212F30E0F6010190FA
:100F80000020E9F73197EC19FD092E173F0720F4EF
:100F9000F1E03F1609F45ACF81EC90E090936100A4
:100FA00080936000DF91CF911F910F91FF90EF90A0
:100FB000DF90CF90BF90AF909F908F907F906F9079
:100FC0005F904F903F902F9008958AB38C608ABBBA
:100FD0008BB384608BBB87B3836E87BB88B388BBBE
:100FE00081B3806C81BB82B3806882BB84B38FEF96
:100FF00084BB089514BC89EF83BD8EE085BD89B79D
:10100000806889BF88B7806C88BF089517B887E863
:1010100086B90895DF92EF92FF920F931F93CF93BB
:10102000DF9300D000D0CDB7DEB780916E00813065
:1010300049F018F0823059F00FC0E0907A00F0903B
:101040007B000CC0E0907800F090790007C0E09041
:101050007600F090770002C0E12CF12CFF2074F4B0
:1010600001E021E041E050E06CE270E08DE20E949E
:101070002606F194E194F10824E01AC001E021E091
:1010800041E050E06CE270E080E20E942606F4CF7E
:10109000C7016AE070E00E944E0BE1E0F0E0EC0F67
:1010A000FD1FE20FF11D805D8083E62EF72E21509B
:1010B0002111EECFF12C0AC0E1E0F0E0EC0FFD1FB2
:1010C000EF0DF11D8081803321F5F39481E08F15C0
:1010D00098F7EF2C14E01FC0DD24D394D10E612FBC
:1010E00070E0660F771F660F771F660F771F6C5EC5
:1010F0007F4FE1E0F0E0EC0FFD1FEE0DF11D01E090
:1011000021E041E050E080810E942606E3941D2DFD
:1011100002C0EF2C14E082E08E15F0F6EE24E3948A
:10112000E10E612F70E0660F771F660F771F660F65
:10113000771F6C5E7F4F01E021E041E050E08EE2DE
:101140000E9426061E5F6E2D70E0660F771F660FE9
:10115000771F660F771F6C5E7F4F21E041E050E004
:101160008D810E942606E12C16C0DD24D394D10E79
:10117000612F70E0660F771F660F771F660F771F6E
:101180006C5E7F4F01E021E041E050E080E20E9490
:101190002606E3941D2DEF1440F30F900F900F904F
:1011A0000F90DF91CF911F910F91FF90EF90DF9003
:1011B000089584E08BBB8FE99FE00197F1F700C0B1
:1011C000000017B886B1806486B93699FECF24B185
:1011D00035B188E08BBB8FE99FE00197F1F700C044
:1011E000000081E087B986B1806486B93699FECF68
:1011F00044B155B1CA018F5B9109833B910578F4E5
:10120000B90161557109633B710548F460916F0044
:10121000611105C060EC60936F0010927000833B19
:10122000910580F4B9016B5471406F39710550F428
:1012300060916F00611106C060EC60936F0061E027
:1012400060937000833B910580F4C90186539240FE
:10125000843A910550F480916F00811106C080ECB2
:1012600080936F0082E0809370004431510550F408
:101270002431310538F480916F0086FF03C08078F7
:1012800080936F000895F8940E94E5070E94FA0782
:101290000E9406080E94C309789480916D008823FB
:1012A00031F00E94D9080E940A0810926D008091C6
:1012B0006F0088230CF04CC0807480936F00809185
:1012C00070008130D1F018F0823059F141C0109295
:1012D0006E0001E022E041E050E064E670E080EB67
:1012E0000E942606EE24E39420E041E050E06CE604
:1012F00070E085E690E00E94D00681E080936E0069
:1013000001E021E041E050E064E670E08BE40E94FF
:10131000260621E041E050E06CE670E080E20E94A9
:10132000260682E080936E0001E022E041E050E07A
:1013300064E670E080EB0E942606EE24E39420E051
:1013400041E050E06CE670E089E690E00E94D00653
:101350000E94B80AA2CF1F920F920FB60F921124CB
:101360008F9380916C008F5F80936C008A3029F49A
:1013700010926C0081E080936D008F910F900FBEF2
:101380000F901F90189510BC83E389B91BB888E9AA
:101390008AB986E880BD13BE12BE89B7816089BF55
:1013A0000895AC0120E08FEF9FEF1CC0FA01E20F1F
:1013B000F11D30818327382F32953827032E36953B
:1013C00036953025032E369530253770082E892F17
:1013D000369507943795902D832706943795902559
:1013E00083272F5F261710F30895CF93DF939091F3
:1013F000A400C8E8D0E0905899838A8363E0CE01C6
:101400000E94D1098B839C8385E0DF91CF91089561
:10141000CF93DF93E3EAF0E0428150E0542F44277A
:101420008381480F511D248130E0322F222785818E
:10143000280F311DCA01820F931F079724F082E005
:101440000E94F5094AC02115310509F445C0E8E8B4
:10145000F0E084E08183622F660F628370E018C041
:10146000DC01AA0FBB1FFA01E80FF91FEE0FFF1FE7
:10147000E458FF4FC081D181FD01E557FF4FD08374
:10148000FC013296EE0FFF1FE857FF4FC0837F5FCE
:10149000872F90E0821793071CF36D5F88E890E038
:1014A0000E94D109E3EAF0E0248130E0322F2227C4
:1014B0004581240F311DF901EE0FFF1FE557FF4F46
:1014C0008083F9013296EE0FFF1FE857FF4F90839C
:1014D000822F880F8B5F01C080E0DF91CF9108954C
:1014E0009091A3009A3009F03FC0682F83EA90E002
:1014F0000E94D109892BD1F58AE08093880081E090
:1015000006C0E82FF0E0E857FF4F10828F5F893167
:10151000C0F38091A4008330A1F028F4813049F019
:10152000823059F01DC0853099F078F08630A1F0F6
:1015300017C081E00E94F509089581E00E94F50935
:10154000089581E00E94F50908950E94080A08950F
:1015500081E00E94F509089581E00E94F50908954F
:1015600081E00E94F509089580E0089580E00895E3
:1015700080917400882391F08091BD000E94700AD0
:101580008093A100882341F01092BC008AB188604A
:101590008AB98AB180628AB91092740008951F9244
:1015A0000F920FB60F9211248F939F93EF93FF9397
:1015B0008CB15C9B03C08EEF8CB923C090917500F9
:1015C00091110CC091E0909375009093A2008093CC
:1015D000A30084E083BF82E882BF13C0E091A20031
:1015E000E93148F491E09E0F9093A200F0E0ED55B0
:1015F000FF4F808302C08093BB0084E083BF82E8FA
:1016000082BFFF91EF919F918F910F900FBE0F902E
:101610001F9018951F920F920FB60F9211248F935F
:10162000EF93FF93E091BC008091A100E81758F47C
:10163000F0E0E857FF4F80818CB98091BC008F5F4C
:101640008093BC0008C08AB1877F8AB98AB18F7D38
:101650008AB91092BC00FF91EF918F910F900FBE4D
:101660000F901F9018951F920F920FB60F92112492
:101670008F9380917500882359F0109275008091A6
:10168000A2008093BD0081E08093740013BE12BE5F
:101690008F910F900FBE0F901F90189597FB072EFC
:1016A00016F4009407D077FD09D00E94620B07FC66
:1016B00005D03EF4909581959F4F08957095619562
:1016C0007F4F0895AA1BBB1B51E107C0AA1FBB1F78
:1016D000A617B70710F0A61BB70B881F991F5A95BE
:1016E000A9F780959095BC01CD010895F894FFCF9E
:0C16F000C100543D0043004B00460000C8
:00000001FF
